{"abi":[{"type":"constructor","inputs":[{"name":"initialOwner","type":"address","internalType":"address"}],"stateMutability":"nonpayable"},{"type":"function","name":"cardExists","inputs":[{"name":"cardId","type":"uint256","internalType":"uint256"}],"outputs":[{"name":"","type":"bool","internalType":"bool"}],"stateMutability":"view"},{"type":"function","name":"createCardType","inputs":[{"name":"cardId","type":"uint256","internalType":"uint256"},{"name":"stats","type":"tuple","internalType":"struct ICardRegistry.CardStats","components":[{"name":"combat","type":"uint16","internalType":"uint16"},{"name":"defense","type":"uint16","internalType":"uint16"},{"name":"speed","type":"uint16","internalType":"uint16"},{"name":"element","type":"uint8","internalType":"uint8"},{"name":"exists","type":"bool","internalType":"bool"}]}],"outputs":[],"stateMutability":"nonpayable"},{"type":"function","name":"getCardStats","inputs":[{"name":"cardId","type":"uint256","internalType":"uint256"}],"outputs":[{"name":"","type":"tuple","internalType":"struct ICardRegistry.CardStats","components":[{"name":"combat","type":"uint16","internalType":"uint16"},{"name":"defense","type":"uint16","internalType":"uint16"},{"name":"speed","type":"uint16","internalType":"uint16"},{"name":"element","type":"uint8","internalType":"uint8"},{"name":"exists","type":"bool","internalType":"bool"}]}],"stateMutability":"view"},{"type":"function","name":"owner","inputs":[],"outputs":[{"name":"","type":"address","internalType":"address"}],"stateMutability":"view"},{"type":"function","name":"renounceOwnership","inputs":[],"outputs":[],"stateMutability":"nonpayable"},{"type":"function","name":"transferOwnership","inputs":[{"name":"newOwner","type":"address","internalType":"address"}],"outputs":[],"stateMutability":"nonpayable"},{"type":"event","name":"CardTypeCreated","inputs":[{"name":"cardId","type":"uint256","indexed":true,"internalType":"uint256"},{"name":"combat","type":"uint16","indexed":false,"internalType":"uint16"},{"name":"defense","type":"uint16","indexed":false,"internalType":"uint16"},{"name":"speed","type":"uint16","indexed":false,"internalType":"uint16"},{"name":"element","type":"uint8","indexed":false,"internalType":"uint8"}],"anonymous":false},{"type":"event","name":"OwnershipTransferred","inputs":[{"name":"previousOwner","type":"address","indexed":true,"internalType":"address"},{"name":"newOwner","type":"address","indexed":true,"internalType":"address"}],"anonymous":false},{"type":"error","name":"CardAlreadyExists","inputs":[{"name":"cardId","type":"uint256","internalType":"uint256"}]},{"type":"error","name":"CardNotFound","inputs":[{"name":"cardId","type":"uint256","internalType":"uint256"}]},{"type":"error","name":"InvalidCardStats","inputs":[]},{"type":"error","name":"InvalidElement","inputs":[{"name":"element","type":"uint8","internalType":"uint8"}]},{"type":"error","name":"OwnableInvalidOwner","inputs":[{"name":"owner","type":"address","internalType":"address"}]},{"type":"error","name":"OwnableUnauthorizedAccount","inputs":[{"name":"account","type":"address","internalType":"address"}]},{"type":"error","name":"ZeroCardId","inputs":[]}],"bytecode":{"object":"0x608060405234801562000010575f80fd5b5060405162000e1538038062000e158339818101604052810190620000369190620001e9565b805f73ffffffffffffffffffffffffffffffffffffffff168173ffffffffffffffffffffffffffffffffffffffff1603620000aa575f6040517f1e4fbdf7000000000000000000000000000000000000000000000000000000008152600401620000a191906200022a565b60405180910390fd5b620000bb81620000c360201b60201c565b505062000245565b5f805f9054906101000a900473ffffffffffffffffffffffffffffffffffffffff169050815f806101000a81548173ffffffffffffffffffffffffffffffffffffffff021916908373ffffffffffffffffffffffffffffffffffffffff1602179055508173ffffffffffffffffffffffffffffffffffffffff168173ffffffffffffffffffffffffffffffffffffffff167f8be0079c531659141344cd1fd0a4f28419497f9722a3daafe3b4186f6b6457e060405160405180910390a35050565b5f80fd5b5f73ffffffffffffffffffffffffffffffffffffffff82169050919050565b5f620001b38262000188565b9050919050565b620001c581620001a7565b8114620001d0575f80fd5b50565b5f81519050620001e381620001ba565b92915050565b5f6020828403121562000201576200020062000184565b5b5f6200021084828501620001d3565b91505092915050565b6200022481620001a7565b82525050565b5f6020820190506200023f5f83018462000219565b92915050565b610bc280620002535f395ff3fe608060405234801561000f575f80fd5b5060043610610060575f3560e01c80634ae3540e14610064578063715018a6146100945780638da5cb5b1461009e578063d44888fe146100bc578063f2fde38b146100ec578063fbfc51bd14610108575b5f80fd5b61007e600480360381019061007991906107bb565b610124565b60405161008b9190610800565b60405180910390f35b61009c61014d565b005b6100a6610160565b6040516100b39190610858565b60405180910390f35b6100d660048036038101906100d191906107bb565b610187565b6040516100e3919061091d565b60405180910390f35b61010660048036038101906101019190610960565b61028f565b005b610122600480360381019061011d91906109ad565b610313565b005b5f60015f8381526020019081526020015f205f0160079054906101000a900460ff169050919050565b6101556105fa565b61015e5f610681565b565b5f805f9054906101000a900473ffffffffffffffffffffffffffffffffffffffff16905090565b61018f610749565b5f60015f8481526020019081526020015f206040518060a00160405290815f82015f9054906101000a900461ffff1661ffff1661ffff1681526020015f820160029054906101000a900461ffff1661ffff1661ffff1681526020015f820160049054906101000a900461ffff1661ffff1661ffff1681526020015f820160069054906101000a900460ff1660ff1660ff1681526020015f820160079054906101000a900460ff1615151515815250509050806080015161028657826040517f3f0beb4700000000000000000000000000000000000000000000000000000000815260040161027d91906109fa565b60405180910390fd5b80915050919050565b6102976105fa565b5f73ffffffffffffffffffffffffffffffffffffffff168173ffffffffffffffffffffffffffffffffffffffff1603610307575f6040517f1e4fbdf70000000000000000000000000000000000000000000000000000000081526004016102fe9190610858565b60405180910390fd5b61031081610681565b50565b61031b6105fa565b5f8203610354576040517f9dabf54200000000000000000000000000000000000000000000000000000000815260040160405180910390fd5b60015f8381526020019081526020015f205f0160079054906101000a900460ff16156103b757816040517ff4e0eb140000000000000000000000000000000000000000000000000000000081526004016103ae91906109fa565b60405180910390fd5b8060800160208101906103ca9190610a3d565b15610401576040517f769261fa00000000000000000000000000000000000000000000000000000000815260040160405180910390fd5b60068160600160208101906104169190610a92565b60ff161061046d578060600160208101906104319190610a92565b6040517f3b1f36010000000000000000000000000000000000000000000000000000000081526004016104649190610acc565b60405180910390fd5b5f6040518060a00160405280835f01602081019061048b9190610b0f565b61ffff1681526020018360200160208101906104a79190610b0f565b61ffff1681526020018360400160208101906104c39190610b0f565b61ffff1681526020018360600160208101906104df9190610a92565b60ff1681526020016001151581525090508060015f8581526020019081526020015f205f820151815f015f6101000a81548161ffff021916908361ffff1602179055506020820151815f0160026101000a81548161ffff021916908361ffff1602179055506040820151815f0160046101000a81548161ffff021916908361ffff1602179055506060820151815f0160066101000a81548160ff021916908360ff1602179055506080820151815f0160076101000a81548160ff021916908315150217905550905050827f8829d9a9c63eaf21fe76979edbca4ae6caa1197bc05c5618f857cca6e110e60b825f01518360200151846040015185606001516040516105ed9493929190610b49565b60405180910390a2505050565b610602610742565b73ffffffffffffffffffffffffffffffffffffffff16610620610160565b73ffffffffffffffffffffffffffffffffffffffff161461067f57610643610742565b6040517f118cdaa70000000000000000000000000000000000000000000000000000000081526004016106769190610858565b60405180910390fd5b565b5f805f9054906101000a900473ffffffffffffffffffffffffffffffffffffffff169050815f806101000a81548173ffffffffffffffffffffffffffffffffffffffff021916908373ffffffffffffffffffffffffffffffffffffffff1602179055508173ffffffffffffffffffffffffffffffffffffffff168173ffffffffffffffffffffffffffffffffffffffff167f8be0079c531659141344cd1fd0a4f28419497f9722a3daafe3b4186f6b6457e060405160405180910390a35050565b5f33905090565b6040518060a001604052805f61ffff1681526020015f61ffff1681526020015f61ffff1681526020015f60ff1681526020015f151581525090565b5f80fd5b5f819050919050565b61079a81610788565b81146107a4575f80fd5b50565b5f813590506107b581610791565b92915050565b5f602082840312156107d0576107cf610784565b5b5f6107dd848285016107a7565b91505092915050565b5f8115159050919050565b6107fa816107e6565b82525050565b5f6020820190506108135f8301846107f1565b92915050565b5f73ffffffffffffffffffffffffffffffffffffffff82169050919050565b5f61084282610819565b9050919050565b61085281610838565b82525050565b5f60208201905061086b5f830184610849565b92915050565b5f61ffff82169050919050565b61088781610871565b82525050565b5f60ff82169050919050565b6108a28161088d565b82525050565b6108b1816107e6565b82525050565b60a082015f8201516108cb5f85018261087e565b5060208201516108de602085018261087e565b5060408201516108f1604085018261087e565b5060608201516109046060850182610899565b50608082015161091760808501826108a8565b50505050565b5f60a0820190506109305f8301846108b7565b92915050565b61093f81610838565b8114610949575f80fd5b50565b5f8135905061095a81610936565b92915050565b5f6020828403121561097557610974610784565b5b5f6109828482850161094c565b91505092915050565b5f80fd5b5f60a082840312156109a4576109a361098b565b5b81905092915050565b5f8060c083850312156109c3576109c2610784565b5b5f6109d0858286016107a7565b92505060206109e18582860161098f565b9150509250929050565b6109f481610788565b82525050565b5f602082019050610a0d5f8301846109eb565b92915050565b610a1c816107e6565b8114610a26575f80fd5b50565b5f81359050610a3781610a13565b92915050565b5f60208284031215610a5257610a51610784565b5b5f610a5f84828501610a29565b91505092915050565b610a718161088d565b8114610a7b575f80fd5b50565b5f81359050610a8c81610a68565b92915050565b5f60208284031215610aa757610aa6610784565b5b5f610ab484828501610a7e565b91505092915050565b610ac68161088d565b82525050565b5f602082019050610adf5f830184610abd565b92915050565b610aee81610871565b8114610af8575f80fd5b50565b5f81359050610b0981610ae5565b92915050565b5f60208284031215610b2457610b23610784565b5b5f610b3184828501610afb565b91505092915050565b610b4381610871565b82525050565b5f608082019050610b5c5f830187610b3a565b610b696020830186610b3a565b610b766040830185610b3a565b610b836060830184610abd565b9594505050505056fea2646970667358221220c9e280547dfdd01756abef31b778491837008f760f0978a622c08aa568d6f91364736f6c63430008180033","linkReferences":{}},"methodIdentifiers":{"cardExists(uint256)":"4ae3540e","createCardType(uint256,(uint16,uint16,uint16,uint8,bool))":"fbfc51bd","getCardStats(uint256)":"d44888fe","owner()":"8da5cb5b","renounceOwnership()":"715018a6","transferOwnership(address)":"f2fde38b"},"id":29}