{"abi":[{"type":"constructor","inputs":[{"name":"stakeToken_","type":"address","internalType":"contract IERC20"},{"name":"cardRegistry_","type":"address","internalType":"contract ICardRegistry"},{"name":"initialOwner","type":"address","internalType":"address"},{"name":"revealTimeout_","type":"uint64","internalType":"uint64"}],"stateMutability":"nonpayable"},{"type":"function","name":"acceptChallenge","inputs":[{"name":"matchId","type":"uint256","internalType":"uint256"},{"name":"commitHash","type":"bytes32","internalType":"bytes32"}],"outputs":[],"stateMutability":"nonpayable"},{"type":"function","name":"cancelUnaccepted","inputs":[{"name":"matchId","type":"uint256","internalType":"uint256"}],"outputs":[],"stateMutability":"nonpayable"},{"type":"function","name":"cardRegistry","inputs":[],"outputs":[{"name":"","type":"address","internalType":"contract ICardRegistry"}],"stateMutability":"view"},{"type":"function","name":"claimForfeit","inputs":[{"name":"matchId","type":"uint256","internalType":"uint256"}],"outputs":[],"stateMutability":"nonpayable"},{"type":"function","name":"createChallenge","inputs":[{"name":"config","type":"tuple","internalType":"struct Types.MatchConfig","components":[{"name":"stake","type":"uint96","internalType":"uint96"},{"name":"rounds","type":"uint8","internalType":"uint8"},{"name":"elementalMultiplierBps","type":"uint16","internalType":"uint16"},{"name":"useElementAdvantage","type":"bool","internalType":"bool"},{"name":"useTotalStatsTiebreaker","type":"bool","internalType":"bool"}]},{"name":"commitHash","type":"bytes32","internalType":"bytes32"}],"outputs":[{"name":"matchId","type":"uint256","internalType":"uint256"}],"stateMutability":"nonpayable"},{"type":"function","name":"elementOutcome","inputs":[{"name":"attackerElement","type":"uint8","internalType":"uint8"},{"name":"defenderElement","type":"uint8","internalType":"uint8"}],"outputs":[{"name":"","type":"int8","internalType":"int8"}],"stateMutability":"view"},{"type":"function","name":"getMatchInfo","inputs":[{"name":"matchId","type":"uint256","internalType":"uint256"}],"outputs":[{"name":"config","type":"tuple","internalType":"struct Types.MatchConfig","components":[{"name":"stake","type":"uint96","internalType":"uint96"},{"name":"rounds","type":"uint8","internalType":"uint8"},{"name":"elementalMultiplierBps","type":"uint16","internalType":"uint16"},{"name":"useElementAdvantage","type":"bool","internalType":"bool"},{"name":"useTotalStatsTiebreaker","type":"bool","internalType":"bool"}]},{"name":"state","type":"uint8","internalType":"enum Types.MatchState"},{"name":"creator","type":"address","internalType":"address"},{"name":"opponent","type":"address","internalType":"address"},{"name":"revealedCreator","type":"bool","internalType":"bool"},{"name":"revealedOpponent","type":"bool","internalType":"bool"},{"name":"revealDeadline","type":"uint64","internalType":"uint64"}],"stateMutability":"view"},{"type":"function","name":"nextMatchId","inputs":[],"outputs":[{"name":"","type":"uint256","internalType":"uint256"}],"stateMutability":"view"},{"type":"function","name":"owner","inputs":[],"outputs":[{"name":"","type":"address","internalType":"address"}],"stateMutability":"view"},{"type":"function","name":"renounceOwnership","inputs":[],"outputs":[],"stateMutability":"nonpayable"},{"type":"function","name":"reveal","inputs":[{"name":"matchId","type":"uint256","internalType":"uint256"},{"name":"lineup","type":"uint256[]","internalType":"uint256[]"},{"name":"salt","type":"bytes32","internalType":"bytes32"}],"outputs":[],"stateMutability":"nonpayable"},{"type":"function","name":"revealTimeout","inputs":[],"outputs":[{"name":"","type":"uint64","internalType":"uint64"}],"stateMutability":"view"},{"type":"function","name":"setElementAdvantage","inputs":[{"name":"attackerElement","type":"uint8","internalType":"uint8"},{"name":"defenderElement","type":"uint8","internalType":"uint8"},{"name":"outcome","type":"int8","internalType":"int8"}],"outputs":[],"stateMutability":"nonpayable"},{"type":"function","name":"stakeToken","inputs":[],"outputs":[{"name":"","type":"address","internalType":"contract IERC20"}],"stateMutability":"view"},{"type":"function","name":"transferOwnership","inputs":[{"name":"newOwner","type":"address","internalType":"address"}],"outputs":[],"stateMutability":"nonpayable"},{"type":"event","name":"ChallengeAccepted","inputs":[{"name":"matchId","type":"uint256","indexed":true,"internalType":"uint256"},{"name":"opponent","type":"address","indexed":true,"internalType":"address"},{"name":"commitHash","type":"bytes32","indexed":false,"internalType":"bytes32"}],"anonymous":false},{"type":"event","name":"ChallengeCancelled","inputs":[{"name":"matchId","type":"uint256","indexed":true,"internalType":"uint256"}],"anonymous":false},{"type":"event","name":"ChallengeCreated","inputs":[{"name":"matchId","type":"uint256","indexed":true,"internalType":"uint256"},{"name":"creator","type":"address","indexed":true,"internalType":"address"},{"name":"commitHash","type":"bytes32","indexed":false,"internalType":"bytes32"},{"name":"config","type":"tuple","indexed":false,"internalType":"struct Types.MatchConfig","components":[{"name":"stake","type":"uint96","internalType":"uint96"},{"name":"rounds","type":"uint8","internalType":"uint8"},{"name":"elementalMultiplierBps","type":"uint16","internalType":"uint16"},{"name":"useElementAdvantage","type":"bool","internalType":"bool"},{"name":"useTotalStatsTiebreaker","type":"bool","internalType":"bool"}]}],"anonymous":false},{"type":"event","name":"ElementAdvantageSet","inputs":[{"name":"attacker","type":"uint8","indexed":true,"internalType":"uint8"},{"name":"defender","type":"uint8","indexed":true,"internalType":"uint8"},{"name":"outcome","type":"int8","indexed":false,"internalType":"int8"}],"anonymous":false},{"type":"event","name":"ForfeitClaimed","inputs":[{"name":"matchId","type":"uint256","indexed":true,"internalType":"uint256"},{"name":"winner","type":"address","indexed":true,"internalType":"address"},{"name":"pot","type":"uint256","indexed":false,"internalType":"uint256"}],"anonymous":false},{"type":"event","name":"MatchResolved","inputs":[{"name":"matchId","type":"uint256","indexed":true,"internalType":"uint256"},{"name":"winner","type":"address","indexed":true,"internalType":"address"},{"name":"winsCreator","type":"uint8","indexed":false,"internalType":"uint8"},{"name":"winsOpponent","type":"uint8","indexed":false,"internalType":"uint8"},{"name":"draws","type":"uint8","indexed":false,"internalType":"uint8"},{"name":"pot","type":"uint256","indexed":false,"internalType":"uint256"}],"anonymous":false},{"type":"event","name":"OwnershipTransferred","inputs":[{"name":"previousOwner","type":"address","indexed":true,"internalType":"address"},{"name":"newOwner","type":"address","indexed":true,"internalType":"address"}],"anonymous":false},{"type":"event","name":"Revealed","inputs":[{"name":"matchId","type":"uint256","indexed":true,"internalType":"uint256"},{"name":"player","type":"address","indexed":true,"internalType":"address"}],"anonymous":false},{"type":"error","name":"AddressEmptyCode","inputs":[{"name":"target","type":"address","internalType":"address"}]},{"type":"error","name":"AddressInsufficientBalance","inputs":[{"name":"account","type":"address","internalType":"address"}]},{"type":"error","name":"AlreadyResolved","inputs":[{"name":"matchId","type":"uint256","internalType":"uint256"}]},{"type":"error","name":"AlreadyRevealed","inputs":[]},{"type":"error","name":"DuplicateCardId","inputs":[{"name":"cardId","type":"uint256","internalType":"uint256"}]},{"type":"error","name":"FailedInnerCall","inputs":[]},{"type":"error","name":"InvalidCardStats","inputs":[]},{"type":"error","name":"InvalidCommit","inputs":[]},{"type":"error","name":"InvalidElement","inputs":[{"name":"element","type":"uint8","internalType":"uint8"}]},{"type":"error","name":"InvalidLineupLength","inputs":[{"name":"expected","type":"uint8","internalType":"uint8"},{"name":"provided","type":"uint256","internalType":"uint256"}]},{"type":"error","name":"InvalidMultiplier","inputs":[{"name":"multiplierBps","type":"uint16","internalType":"uint16"}]},{"type":"error","name":"InvalidReveal","inputs":[]},{"type":"error","name":"InvalidRevealTimeout","inputs":[{"name":"revealTimeout","type":"uint64","internalType":"uint64"}]},{"type":"error","name":"InvalidRounds","inputs":[{"name":"rounds","type":"uint8","internalType":"uint8"}]},{"type":"error","name":"InvalidState","inputs":[{"name":"matchId","type":"uint256","internalType":"uint256"}]},{"type":"error","name":"MatchNotFound","inputs":[{"name":"matchId","type":"uint256","internalType":"uint256"}]},{"type":"error","name":"NotPlayer","inputs":[{"name":"matchId","type":"uint256","internalType":"uint256"}]},{"type":"error","name":"OwnableInvalidOwner","inputs":[{"name":"owner","type":"address","internalType":"address"}]},{"type":"error","name":"OwnableUnauthorizedAccount","inputs":[{"name":"account","type":"address","internalType":"address"}]},{"type":"error","name":"ReentrancyGuardReentrantCall","inputs":[]},{"type":"error","name":"RevealDeadlineNotPassed","inputs":[{"name":"matchId","type":"uint256","internalType":"uint256"},{"name":"revealDeadline","type":"uint64","internalType":"uint64"}]},{"type":"error","name":"RevealDeadlinePassed","inputs":[{"name":"matchId","type":"uint256","internalType":"uint256"},{"name":"revealDeadline","type":"uint64","internalType":"uint64"}]},{"type":"error","name":"SafeERC20FailedOperation","inputs":[{"name":"token","type":"address","internalType":"address"}]},{"type":"error","name":"SelfMatch","inputs":[]},{"type":"error","name":"UnknownCardId","inputs":[{"name":"cardId","type":"uint256","internalType":"uint256"}]},{"type":"error","name":"ZeroAddress","inputs":[]},{"type":"error","name":"ZeroCardId","inputs":[]},{"type":"error","name":"ZeroStake","inputs":[]}],"bytecode":{"object":"0x60e0604052600160025534801562000015575f80fd5b5060405162004a4138038062004a4183398181016040528101906200003b9190620008c5565b815f73ffffffffffffffffffffffffffffffffffffffff168173ffffffffffffffffffffffffffffffffffffffff1603620000af575f6040517f1e4fbdf7000000000000000000000000000000000000000000000000000000008152600401620000a6919062000945565b60405180910390fd5b620000c0816200028360201b60201c565b50600180819055505f73ffffffffffffffffffffffffffffffffffffffff168473ffffffffffffffffffffffffffffffffffffffff16036200012e576040517fd92e233d00000000000000000000000000000000000000000000000000000000815260040160405180910390fd5b5f73ffffffffffffffffffffffffffffffffffffffff168373ffffffffffffffffffffffffffffffffffffffff160362000194576040517fd92e233d00000000000000000000000000000000000000000000000000000000815260040160405180910390fd5b5f8167ffffffffffffffff1603620001e557806040517fa8925554000000000000000000000000000000000000000000000000000000008152600401620001dc919062000971565b60405180910390fd5b8373ffffffffffffffffffffffffffffffffffffffff1660808173ffffffffffffffffffffffffffffffffffffffff16815250508273ffffffffffffffffffffffffffffffffffffffff1660a08173ffffffffffffffffffffffffffffffffffffffff16815250508067ffffffffffffffff1660c08167ffffffffffffffff1681525050620002796200034460201b60201c565b5050505062000ab2565b5f805f9054906101000a900473ffffffffffffffffffffffffffffffffffffffff169050815f806101000a81548173ffffffffffffffffffffffffffffffffffffffff021916908373ffffffffffffffffffffffffffffffffffffffff1602179055508173ffffffffffffffffffffffffffffffffffffffff168173ffffffffffffffffffffffffffffffffffffffff167f8be0079c531659141344cd1fd0a4f28419497f9722a3daafe3b4186f6b6457e060405160405180910390a35050565b62000382600160058111156200035f576200035e6200098c565b5b600360058111156200037657620003756200098c565b5b6200062660201b60201c565b620003bf600160058111156200039d576200039c6200098c565b5b5f6005811115620003b357620003b26200098c565b5b6200062660201b60201c565b620003fd60026005811115620003da57620003d96200098c565b5b60016005811115620003f157620003f06200098c565b5b6200062660201b60201c565b6200043a600260058111156200041857620004176200098c565b5b6005808111156200042e576200042d6200098c565b5b6200062660201b60201c565b62000478600360058111156200045557620004546200098c565b5b600260058111156200046c576200046b6200098c565b5b6200062660201b60201c565b620004b5600360058111156200049357620004926200098c565b5b600580811115620004a957620004a86200098c565b5b6200062660201b60201c565b620004f2600580811115620004cf57620004ce6200098c565b5b60016005811115620004e657620004e56200098c565b5b6200062660201b60201c565b6200052f6005808111156200050c576200050b6200098c565b5b600460058111156200052357620005226200098c565b5b6200062660201b60201c565b6200056d600460058111156200054a57620005496200098c565b5b600260058111156200056157620005606200098c565b5b6200062660201b60201c565b620005aa600460058111156200058857620005876200098c565b5b5f60058111156200059e576200059d6200098c565b5b6200062660201b60201c565b620005e75f6005811115620005c457620005c36200098c565b5b60036005811115620005db57620005da6200098c565b5b6200062660201b60201c565b620006245f60058111156200060157620006006200098c565b5b600460058111156200061857620006176200098c565b5b6200062660201b60201c565b565b600160048360ff1660068110620006425762000641620009b9565b5b018260ff16600681106200065b576200065a620009b9565b5b602091828204019190066101000a81548160ff02191690835f0b60ff1602179055507fffffffffffffffffffffffffffffffffffffffffffffffffffffffffffffffff60048260ff1660068110620006b857620006b7620009b9565b5b018360ff1660068110620006d157620006d0620009b9565b5b602091828204019190066101000a81548160ff02191690835f0b60ff1602179055508060ff168260ff167f171c82987ef821ac2aa0a1fe217468c66d55db26238b1dad4baf5e86f30ec1e960016040516200072d919062000a3b565b60405180910390a38160ff168160ff167f171c82987ef821ac2aa0a1fe217468c66d55db26238b1dad4baf5e86f30ec1e97fffffffffffffffffffffffffffffffffffffffffffffffffffffffffffffffff6040516200078e919062000a97565b60405180910390a35050565b5f80fd5b5f73ffffffffffffffffffffffffffffffffffffffff82169050919050565b5f620007c9826200079e565b9050919050565b5f620007dc82620007bd565b9050919050565b620007ee81620007d0565b8114620007f9575f80fd5b50565b5f815190506200080c81620007e3565b92915050565b5f6200081e82620007bd565b9050919050565b620008308162000812565b81146200083b575f80fd5b50565b5f815190506200084e8162000825565b92915050565b6200085f81620007bd565b81146200086a575f80fd5b50565b5f815190506200087d8162000854565b92915050565b5f67ffffffffffffffff82169050919050565b620008a18162000883565b8114620008ac575f80fd5b50565b5f81519050620008bf8162000896565b92915050565b5f805f8060808587031215620008e057620008df6200079a565b5b5f620008ef87828801620007fc565b945050602062000902878288016200083e565b935050604062000915878288016200086d565b92505060606200092887828801620008af565b91505092959194509250565b6200093f81620007bd565b82525050565b5f6020820190506200095a5f83018462000934565b92915050565b6200096b8162000883565b82525050565b5f602082019050620009865f83018462000960565b92915050565b7f4e487b71000000000000000000000000000000000000000000000000000000005f52602160045260245ffd5b7f4e487b71000000000000000000000000000000000000000000000000000000005f52603260045260245ffd5b5f819050919050565b5f815f0b9050919050565b5f819050919050565b5f62000a2362000a1d62000a1784620009e6565b620009fa565b620009ef565b9050919050565b62000a358162000a03565b82525050565b5f60208201905062000a505f83018462000a2a565b92915050565b5f819050919050565b5f62000a7f62000a7962000a738462000a56565b620009fa565b620009ef565b9050919050565b62000a918162000a5f565b82525050565b5f60208201905062000aac5f83018462000a86565b92915050565b60805160a05160c051613efb62000b465f395f818161044801526111ba01525f81816112e301528181611d86015281816120ae015261216301525f8181610672015281816107bf01528181610e6801528181611240015281816114e2015281816115fb0152818161170d015281816117a5015281816122fb0152818161237f015281816123f301526124610152613efb5ff3fe608060405234801561000f575f80fd5b50600436106100f3575f3560e01c80638db29ecc11610095578063bec9c4da11610064578063bec9c4da14610261578063c5adf7c91461027f578063d4c147e21461029d578063f2fde38b146102b9576100f3565b80638db29ecc146101dd578063955c1247146101f9578063a09b405a14610215578063a987358114610245576100f3565b806351ed6a30116100d157806351ed6a30146101675780636b6feee114610185578063715018a6146101b55780638da5cb5b146101bf576100f3565b80633189a19a146100f75780634376cb34146101135780634b561a1614610131575b5f80fd5b610111600480360381019061010c9190612cb3565b6102d5565b005b61011b610446565b6040516101289190612d25565b60405180910390f35b61014b60048036038101906101469190612d71565b61046a565b60405161015e9796959493929190612f2e565b60405180910390f35b61016f610670565b60405161017c9190612ffa565b60405180910390f35b61019f600480360381019061019a9190613068565b610694565b6040516101ac91906130b5565b60405180910390f35b6101bd610864565b005b6101c7610877565b6040516101d491906130ce565b60405180910390f35b6101f760048036038101906101f29190613148565b61089e565b005b610213600480360381019061020e9190612d71565b610cbe565b005b61022f600480360381019061022a91906131b9565b610ee5565b60405161023c9190613206565b60405180910390f35b61025f600480360381019061025a919061321f565b610f55565b005b6102696112e1565b604051610276919061327d565b60405180910390f35b610287611305565b60405161029491906130b5565b60405180910390f35b6102b760048036038101906102b29190612d71565b61130b565b005b6102d360048036038101906102ce91906132c0565b611846565b005b6102dd6118ca565b60068360ff161015806102f4575060068260ff1610155b156103495760068360ff16101561030b578161030d565b825b6040517f3b1f360100000000000000000000000000000000000000000000000000000000815260040161034091906132fa565b60405180910390fd5b7fffffffffffffffffffffffffffffffffffffffffffffffffffffffffffffffff815f0b128061037b57506001815f0b135b156103b2576040517f769261fa00000000000000000000000000000000000000000000000000000000815260040160405180910390fd5b8060048460ff16600681106103ca576103c9613313565b5b018360ff16600681106103e0576103df613313565b5b602091828204019190066101000a81548160ff02191690835f0b60ff1602179055508160ff168360ff167f171c82987ef821ac2aa0a1fe217468c66d55db26238b1dad4baf5e86f30ec1e9836040516104399190613206565b60405180910390a3505050565b7f000000000000000000000000000000000000000000000000000000000000000081565b610472612bf4565b5f805f805f805f60035f8a81526020019081526020015f2090505f600481111561049f5761049e612e6d565b5b816001015f9054906101000a900460ff1660048111156104c2576104c1612e6d565b5b0361050457886040517f880016040000000000000000000000000000000000000000000000000000000081526004016104fb91906130b5565b60405180910390fd5b805f01816001015f9054906101000a900460ff168260010160019054906101000a900473ffffffffffffffffffffffffffffffffffffffff16836002015f9054906101000a900473ffffffffffffffffffffffffffffffffffffffff16846005015f9054906101000a900460ff168560050160019054906101000a900460ff168660050160029054906101000a900467ffffffffffffffff16866040518060a00160405290815f82015f9054906101000a90046bffffffffffffffffffffffff166bffffffffffffffffffffffff166bffffffffffffffffffffffff1681526020015f8201600c9054906101000a900460ff1660ff1660ff1681526020015f8201600d9054906101000a900461ffff1661ffff1661ffff1681526020015f8201600f9054906101000a900460ff161515151581526020015f820160109054906101000a900460ff1615151515815250509650975097509750975097509750975050919395979092949650565b7f000000000000000000000000000000000000000000000000000000000000000081565b5f61069d611951565b6106a683611997565b5f801b82036106e1576040517fb7b3378700000000000000000000000000000000000000000000000000000000815260040160405180910390fd5b60025f8154809291906106f39061336d565b9190505590505f60035f8381526020019081526020015f20905083815f01818161071d919061375d565b9050506001816001015f6101000a81548160ff0219169083600481111561074757610746612e6d565b5b0217905550338160010160016101000a81548173ffffffffffffffffffffffffffffffffffffffff021916908373ffffffffffffffffffffffffffffffffffffffff1602179055508281600301819055506108043330865f0160208101906107af919061377f565b6bffffffffffffffffffffffff167f000000000000000000000000000000000000000000000000000000000000000073ffffffffffffffffffffffffffffffffffffffff16611b35909392919063ffffffff16565b3373ffffffffffffffffffffffffffffffffffffffff16827f1570284a7367447208c523e9fc252607ed01c43adcb17d91fea62602f3373b07858760405161084d9291906138c7565b60405180910390a35061085e611bb7565b92915050565b61086c6118ca565b6108755f611bc0565b565b5f805f9054906101000a900473ffffffffffffffffffffffffffffffffffffffff16905090565b6108a6611951565b5f60035f8681526020019081526020015f209050600260048111156108ce576108cd612e6d565b5b816001015f9054906101000a900460ff1660048111156108f1576108f0612e6d565b5b1461093357846040517f815506a800000000000000000000000000000000000000000000000000000000815260040161092a91906130b5565b60405180910390fd5b8060050160029054906101000a900467ffffffffffffffff1667ffffffffffffffff164211156109b457848160050160029054906101000a900467ffffffffffffffff166040517f592ff4d00000000000000000000000000000000000000000000000000000000081526004016109ab9291906138ee565b60405180910390fd5b5f8160010160019054906101000a900473ffffffffffffffffffffffffffffffffffffffff1673ffffffffffffffffffffffffffffffffffffffff163373ffffffffffffffffffffffffffffffffffffffff161490505f826002015f9054906101000a900473ffffffffffffffffffffffffffffffffffffffff1673ffffffffffffffffffffffffffffffffffffffff163373ffffffffffffffffffffffffffffffffffffffff1614905081158015610a6b575080155b15610aad57866040517f0878aa52000000000000000000000000000000000000000000000000000000008152600401610aa491906130b5565b60405180910390fd5b8115610b7257826005015f9054906101000a900460ff1615610afb576040517fa89ac15100000000000000000000000000000000000000000000000000000000815260040160405180910390fd5b8260030154610b0d8833898989611c81565b14610b44576040517f9ea6d12700000000000000000000000000000000000000000000000000000000815260040160405180910390fd5b610b518387876001611cbc565b6001836005015f6101000a81548160ff021916908315150217905550610c2e565b8260050160019054906101000a900460ff1615610bbb576040517fa89ac15100000000000000000000000000000000000000000000000000000000815260040160405180910390fd5b8260040154610bcd8833898989611c81565b14610c04576040517f9ea6d12700000000000000000000000000000000000000000000000000000000815260040160405180910390fd5b610c108387875f611cbc565b60018360050160016101000a81548160ff0219169083151502179055505b3373ffffffffffffffffffffffffffffffffffffffff16877f6e9dac3f3f833c1d527aa989d3a673884ddc11e31fdccc11ccd8aebf1ae069ac60405160405180910390a3826005015f9054906101000a900460ff168015610c9d57508260050160019054906101000a900460ff165b15610cad57610cac8784611f2c565b5b505050610cb8611bb7565b50505050565b610cc6611951565b5f60035f8381526020019081526020015f20905060016004811115610cee57610ced612e6d565b5b816001015f9054906101000a900460ff166004811115610d1157610d10612e6d565b5b14610d5357816040517f815506a8000000000000000000000000000000000000000000000000000000008152600401610d4a91906130b5565b60405180910390fd5b8060010160019054906101000a900473ffffffffffffffffffffffffffffffffffffffff1673ffffffffffffffffffffffffffffffffffffffff163373ffffffffffffffffffffffffffffffffffffffff1614610de757816040517f0878aa52000000000000000000000000000000000000000000000000000000008152600401610dde91906130b5565b60405180910390fd5b6004816001015f6101000a81548160ff02191690836004811115610e0e57610e0d612e6d565b5b0217905550610eac8160010160019054906101000a900473ffffffffffffffffffffffffffffffffffffffff16825f015f015f9054906101000a90046bffffffffffffffffffffffff166bffffffffffffffffffffffff167f000000000000000000000000000000000000000000000000000000000000000073ffffffffffffffffffffffffffffffffffffffff166125089092919063ffffffff16565b817f8f468517950218b9c61ac630652209be7aeda4de4f6eda5e0d4b106d784fa4e960405160405180910390a250610ee2611bb7565b50565b5f60068360ff16101580610efd575060068260ff1610155b15610f0a575f9050610f4f565b60048360ff1660068110610f2157610f20613313565b5b018260ff1660068110610f3757610f36613313565b5b602091828204019190069054906101000a90045f0b90505b92915050565b610f5d611951565b5f60035f8481526020019081526020015f20905060016004811115610f8557610f84612e6d565b5b816001015f9054906101000a900460ff166004811115610fa857610fa7612e6d565b5b14610fea57826040517f815506a8000000000000000000000000000000000000000000000000000000008152600401610fe191906130b5565b60405180910390fd5b5f801b8203611025576040517fb7b3378700000000000000000000000000000000000000000000000000000000815260040160405180910390fd5b8060010160019054906101000a900473ffffffffffffffffffffffffffffffffffffffff1673ffffffffffffffffffffffffffffffffffffffff163373ffffffffffffffffffffffffffffffffffffffff16036110ae576040517f8eb30e7000000000000000000000000000000000000000000000000000000000815260040160405180910390fd5b5f73ffffffffffffffffffffffffffffffffffffffff16816002015f9054906101000a900473ffffffffffffffffffffffffffffffffffffffff1673ffffffffffffffffffffffffffffffffffffffff161461114157826040517f815506a800000000000000000000000000000000000000000000000000000000815260040161113891906130b5565b60405180910390fd5b33816002015f6101000a81548173ffffffffffffffffffffffffffffffffffffffff021916908373ffffffffffffffffffffffffffffffffffffffff1602179055508181600401819055506002816001015f6101000a81548160ff021916908360048111156111b3576111b2612e6d565b5b02179055507f0000000000000000000000000000000000000000000000000000000000000000426111e49190613915565b8160050160026101000a81548167ffffffffffffffff021916908367ffffffffffffffff1602179055506112853330835f015f015f9054906101000a90046bffffffffffffffffffffffff166bffffffffffffffffffffffff167f000000000000000000000000000000000000000000000000000000000000000073ffffffffffffffffffffffffffffffffffffffff16611b35909392919063ffffffff16565b3373ffffffffffffffffffffffffffffffffffffffff16837f4c0067878d1cd75de2fc92f0fddc2c31a4305ea40fd69660357b6868895bb334846040516112cc9190613950565b60405180910390a3506112dd611bb7565b5050565b7f000000000000000000000000000000000000000000000000000000000000000081565b60025481565b611313611951565b5f60035f8381526020019081526020015f2090506002600481111561133b5761133a612e6d565b5b816001015f9054906101000a900460ff16600481111561135e5761135d612e6d565b5b146113a057816040517f815506a800000000000000000000000000000000000000000000000000000000815260040161139791906130b5565b60405180910390fd5b8060050160029054906101000a900467ffffffffffffffff1667ffffffffffffffff16421161142057818160050160029054906101000a900467ffffffffffffffff166040517f403b4bee0000000000000000000000000000000000000000000000000000000081526004016114179291906138ee565b60405180910390fd5b5f6002825f015f015f9054906101000a90046bffffffffffffffffffffffff166bffffffffffffffffffffffff166114589190613969565b90506003826001015f6101000a81548160ff0219169083600481111561148157611480612e6d565b5b0217905550816005015f9054906101000a900460ff1680156114b257508160050160019054906101000a900460ff16155b156115a0576115268260010160019054906101000a900473ffffffffffffffffffffffffffffffffffffffff16827f000000000000000000000000000000000000000000000000000000000000000073ffffffffffffffffffffffffffffffffffffffff166125089092919063ffffffff16565b8160010160019054906101000a900473ffffffffffffffffffffffffffffffffffffffff1673ffffffffffffffffffffffffffffffffffffffff16837f8dda636bce209396b75af8d3b9a36675b2c73f2257c3aa4f1df85fcdb1c963ef8360405161159191906130b5565b60405180910390a3505061183b565b816005015f9054906101000a900460ff161580156115cc57508160050160019054906101000a900460ff165b156116b85761163f826002015f9054906101000a900473ffffffffffffffffffffffffffffffffffffffff16827f000000000000000000000000000000000000000000000000000000000000000073ffffffffffffffffffffffffffffffffffffffff166125089092919063ffffffff16565b816002015f9054906101000a900473ffffffffffffffffffffffffffffffffffffffff1673ffffffffffffffffffffffffffffffffffffffff16837f8dda636bce209396b75af8d3b9a36675b2c73f2257c3aa4f1df85fcdb1c963ef836040516116a991906130b5565b60405180910390a3505061183b565b6117518260010160019054906101000a900473ffffffffffffffffffffffffffffffffffffffff16835f015f015f9054906101000a90046bffffffffffffffffffffffff166bffffffffffffffffffffffff167f000000000000000000000000000000000000000000000000000000000000000073ffffffffffffffffffffffffffffffffffffffff166125089092919063ffffffff16565b6117e9826002015f9054906101000a900473ffffffffffffffffffffffffffffffffffffffff16835f015f015f9054906101000a90046bffffffffffffffffffffffff166bffffffffffffffffffffffff167f000000000000000000000000000000000000000000000000000000000000000073ffffffffffffffffffffffffffffffffffffffff166125089092919063ffffffff16565b5f73ffffffffffffffffffffffffffffffffffffffff16837f8dda636bce209396b75af8d3b9a36675b2c73f2257c3aa4f1df85fcdb1c963ef8360405161183091906130b5565b60405180910390a350505b611843611bb7565b50565b61184e6118ca565b5f73ffffffffffffffffffffffffffffffffffffffff168173ffffffffffffffffffffffffffffffffffffffff16036118be575f6040517f1e4fbdf70000000000000000000000000000000000000000000000000000000081526004016118b591906130ce565b60405180910390fd5b6118c781611bc0565b50565b6118d2612587565b73ffffffffffffffffffffffffffffffffffffffff166118f0610877565b73ffffffffffffffffffffffffffffffffffffffff161461194f57611913612587565b6040517f118cdaa700000000000000000000000000000000000000000000000000000000815260040161194691906130ce565b60405180910390fd5b565b60026001540361198d576040517f3ee5aeb500000000000000000000000000000000000000000000000000000000815260040160405180910390fd5b6002600181905550565b5f815f0160208101906119aa919061377f565b6bffffffffffffffffffffffff16036119ef576040517f150a67e900000000000000000000000000000000000000000000000000000000815260040160405180910390fd5b6003816020016020810190611a0491906139aa565b60ff1614158015611a2b57506006816020016020810190611a2591906139aa565b60ff1614155b8015611a4d57506009816020016020810190611a4791906139aa565b60ff1614155b15611aa157806020016020810190611a6591906139aa565b6040517fe5ceba0c000000000000000000000000000000000000000000000000000000008152600401611a9891906132fa565b60405180910390fd5b612710816040016020810190611ab791906139d5565b61ffff161080611ade5750614e20816040016020810190611ad891906139d5565b61ffff16115b15611b3257806040016020810190611af691906139d5565b6040517fbdfeb7ae000000000000000000000000000000000000000000000000000000008152600401611b299190613a0f565b60405180910390fd5b50565b611bb1848573ffffffffffffffffffffffffffffffffffffffff166323b872dd868686604051602401611b6a93929190613a28565b604051602081830303815290604052915060e01b6020820180517bffffffffffffffffffffffffffffffffffffffffffffffffffffffff838183161783525050505061258e565b50505050565b60018081905550565b5f805f9054906101000a900473ffffffffffffffffffffffffffffffffffffffff169050815f806101000a81548173ffffffffffffffffffffffffffffffffffffffff021916908373ffffffffffffffffffffffffffffffffffffffff1602179055508173ffffffffffffffffffffffffffffffffffffffff168173ffffffffffffffffffffffffffffffffffffffff167f8be0079c531659141344cd1fd0a4f28419497f9722a3daafe3b4186f6b6457e060405160405180910390a35050565b5f8585858585604051602001611c9b959493929190613ad5565b60405160208183030381529060405280519060200120905095945050505050565b5f845f015f01600c9054906101000a900460ff1690508060ff168484905014611d215780848490506040517f5e0a6fe0000000000000000000000000000000000000000000000000000000008152600401611d18929190613b21565b60405180910390fd5b5f5b8160ff16811015611f24575f858583818110611d4257611d41613313565b5b9050602002013590505f8103611d84576040517f9dabf54200000000000000000000000000000000000000000000000000000000815260040160405180910390fd5b7f000000000000000000000000000000000000000000000000000000000000000073ffffffffffffffffffffffffffffffffffffffff16634ae3540e826040518263ffffffff1660e01b8152600401611ddd91906130b5565b602060405180830381865afa158015611df8573d5f803e3d5ffd5b505050506040513d601f19601f82011682018060405250810190611e1c9190613b5c565b611e5d57806040517fd1ad1e34000000000000000000000000000000000000000000000000000000008152600401611e5491906130b5565b60405180910390fd5b5f5b82811015611ed15781878783818110611e7b57611e7a613313565b5b9050602002013503611ec457816040517f9152b4e4000000000000000000000000000000000000000000000000000000008152600401611ebb91906130b5565b60405180910390fd5b8080600101915050611e5f565b508315611ef95780876006018360098110611eef57611eee613313565b5b0181905550611f16565b8087600f018360098110611f1057611f0f613313565b5b01819055505b508080600101915050611d23565b505050505050565b60036004811115611f4057611f3f612e6d565b5b816001015f9054906101000a900460ff166004811115611f6357611f62612e6d565b5b03611fa557816040517fe1ba032d000000000000000000000000000000000000000000000000000000008152600401611f9c91906130b5565b60405180910390fd5b6003816001015f6101000a81548160ff02191690836004811115611fcc57611fcb612e6d565b5b02179055505f815f016040518060a00160405290815f82015f9054906101000a90046bffffffffffffffffffffffff166bffffffffffffffffffffffff166bffffffffffffffffffffffff1681526020015f8201600c9054906101000a900460ff1660ff1660ff1681526020015f8201600d9054906101000a900461ffff1661ffff1661ffff1681526020015f8201600f9054906101000a900460ff161515151581526020015f820160109054906101000a900460ff16151515158152505090505f816020015190505f805f805f90505b8460ff168160ff161015612298575f7f000000000000000000000000000000000000000000000000000000000000000073ffffffffffffffffffffffffffffffffffffffff1663d44888fe896006018460ff166009811061210157612100613313565b5b01546040518263ffffffff1660e01b815260040161211f91906130b5565b60a060405180830381865afa15801561213a573d5f803e3d5ffd5b505050506040513d601f19601f8201168201806040525081019061215e9190613cc4565b90505f7f000000000000000000000000000000000000000000000000000000000000000073ffffffffffffffffffffffffffffffffffffffff1663d44888fe8a600f018560ff16600981106121b6576121b5613313565b5b01546040518263ffffffff1660e01b81526004016121d491906130b5565b60a060405180830381865afa1580156121ef573d5f803e3d5ffd5b505050506040513d601f19601f820116820180604052508101906122139190613cc4565b90505f61223c838361222487612623565b6122368760600151876060015161264d565b8d6126bd565b90505f815f0b131561225b57868061225390613cef565b975050612288565b5f815f0b121561227857858061227090613cef565b965050612287565b848061228390613cef565b9550505b5b505050808060010191505061209d565b505f855f01516bffffffffffffffffffffffff1690505f6002826122bc9190613969565b90505f8460ff168660ff161115612344578860010160019054906101000a900473ffffffffffffffffffffffffffffffffffffffff16905061233f81837f000000000000000000000000000000000000000000000000000000000000000073ffffffffffffffffffffffffffffffffffffffff166125089092919063ffffffff16565b6124a7565b8560ff168560ff1611156123c857886002015f9054906101000a900473ffffffffffffffffffffffffffffffffffffffff1690506123c381837f000000000000000000000000000000000000000000000000000000000000000073ffffffffffffffffffffffffffffffffffffffff166125089092919063ffffffff16565b6124a6565b6124378960010160019054906101000a900473ffffffffffffffffffffffffffffffffffffffff16847f000000000000000000000000000000000000000000000000000000000000000073ffffffffffffffffffffffffffffffffffffffff166125089092919063ffffffff16565b6124a5896002015f9054906101000a900473ffffffffffffffffffffffffffffffffffffffff16847f000000000000000000000000000000000000000000000000000000000000000073ffffffffffffffffffffffffffffffffffffffff166125089092919063ffffffff16565b5b5b8073ffffffffffffffffffffffffffffffffffffffff168a7ff905ef7c5d09975ea660cbedc49c3a73472542399364a20a8006eafee594a008888888876040516124f49493929190613d17565b60405180910390a350505050505050505050565b612582838473ffffffffffffffffffffffffffffffffffffffff1663a9059cbb858560405160240161253b929190613d5a565b604051602081830303815290604052915060e01b6020820180517bffffffffffffffffffffffffffffffffffffffffffffffffffffffff838183161783525050505061258e565b505050565b5f33905090565b5f6125b8828473ffffffffffffffffffffffffffffffffffffffff1661279390919063ffffffff16565b90505f8151141580156125dc5750808060200190518101906125da9190613b5c565b155b1561261e57826040517f5274afe700000000000000000000000000000000000000000000000000000000815260040161261591906130ce565b60405180910390fd5b505050565b5f6003826126319190613dae565b60ff16600281111561264657612645612e6d565b5b9050919050565b5f60068360ff16101580612665575060068260ff1610155b15612672575f90506126b7565b60048360ff166006811061268957612688613313565b5b018260ff166006811061269f5761269e613313565b5b602091828204019190069054906101000a90045f0b90505b92915050565b5f806126c987866127a8565b90505f6126d687876127a8565b90505f8261ffff1690505f8261ffff169050856060015180156126fb57505f875f0b14155b1561275c575f866040015161ffff1690505f885f0b131561273a57612710818661ffff166127299190613969565b6127339190613dde565b925061275a565b612710818561ffff1661274d9190613969565b6127579190613dde565b91505b505b5f6127678383612825565b90505f815f0b036127825761277f8b8b8b8b8b612871565b90505b809550505050505095945050505050565b60606127a083835f6129db565b905092915050565b5f8060028111156127bc576127bb612e6d565b5b8260028111156127cf576127ce612e6d565b5b036127df57825f0151905061281f565b600160028111156127f3576127f2612e6d565b5b82600281111561280657612805612e6d565b5b03612817578260200151905061281f565b826040015190505b92915050565b5f81831115612837576001905061286b565b81831015612867577fffffffffffffffffffffffffffffffffffffffffffffffffffffffffffffffff905061286b565b5f90505b92915050565b5f8160600151801561288557505f835f0b14155b156128c3575f835f0b136128b9577fffffffffffffffffffffffffffffffffffffffffffffffffffffffffffffffff6128bc565b60015b90506129d2565b816080015115612944575f86604001518760200151885f01516128e69190613e0e565b6128f09190613e0e565b90505f86604001518760200151885f015161290b9190613e0e565b6129159190613e0e565b90505f61292a8361ffff168361ffff16612825565b90505f815f0b14612940578093505050506129d2565b5050505b5f8061294f86612aa4565b915091505f6129786129618a856127a8565b61ffff1661296f8a866127a8565b61ffff16612825565b90505f815f0b1461298e578093505050506129d2565b5f6129b361299c8b856127a8565b61ffff166129aa8b866127a8565b61ffff16612825565b90505f815f0b146129ca57809450505050506129d2565b5f9450505050505b95945050505050565b606081471015612a2257306040517fcd786059000000000000000000000000000000000000000000000000000000008152600401612a1991906130ce565b60405180910390fd5b5f808573ffffffffffffffffffffffffffffffffffffffff168486604051612a4a9190613eaf565b5f6040518083038185875af1925050503d805f8114612a84576040519150601f19603f3d011682016040523d82523d5f602084013e612a89565b606091505b5091509150612a99868383612b23565b925050509392505050565b5f805f6002811115612ab957612ab8612e6d565b5b836002811115612acc57612acb612e6d565b5b03612ade576001600291509150612b1e565b60016002811115612af257612af1612e6d565b5b836002811115612b0557612b04612e6d565b5b03612b165760025f91509150612b1e565b5f6001915091505b915091565b606082612b3857612b3382612bb0565b612ba8565b5f8251148015612b5e57505f8473ffffffffffffffffffffffffffffffffffffffff163b145b15612ba057836040517f9996b315000000000000000000000000000000000000000000000000000000008152600401612b9791906130ce565b60405180910390fd5b819050612ba9565b5b9392505050565b5f81511115612bc25780518082602001fd5b6040517f1425ea4200000000000000000000000000000000000000000000000000000000815260040160405180910390fd5b6040518060a001604052805f6bffffffffffffffffffffffff1681526020015f60ff1681526020015f61ffff1681526020015f151581526020015f151581525090565b5f604051905090565b5f80fd5b5f80fd5b5f60ff82169050919050565b612c5d81612c48565b8114612c67575f80fd5b50565b5f81359050612c7881612c54565b92915050565b5f815f0b9050919050565b612c9281612c7e565b8114612c9c575f80fd5b50565b5f81359050612cad81612c89565b92915050565b5f805f60608486031215612cca57612cc9612c40565b5b5f612cd786828701612c6a565b9350506020612ce886828701612c6a565b9250506040612cf986828701612c9f565b9150509250925092565b5f67ffffffffffffffff82169050919050565b612d1f81612d03565b82525050565b5f602082019050612d385f830184612d16565b92915050565b5f819050919050565b612d5081612d3e565b8114612d5a575f80fd5b50565b5f81359050612d6b81612d47565b92915050565b5f60208284031215612d8657612d85612c40565b5b5f612d9384828501612d5d565b91505092915050565b5f6bffffffffffffffffffffffff82169050919050565b612dbc81612d9c565b82525050565b612dcb81612c48565b82525050565b5f61ffff82169050919050565b612de781612dd1565b82525050565b5f8115159050919050565b612e0181612ded565b82525050565b60a082015f820151612e1b5f850182612db3565b506020820151612e2e6020850182612dc2565b506040820151612e416040850182612dde565b506060820151612e546060850182612df8565b506080820151612e676080850182612df8565b50505050565b7f4e487b71000000000000000000000000000000000000000000000000000000005f52602160045260245ffd5b60058110612eab57612eaa612e6d565b5b50565b5f819050612ebb82612e9a565b919050565b5f612eca82612eae565b9050919050565b612eda81612ec0565b82525050565b5f73ffffffffffffffffffffffffffffffffffffffff82169050919050565b5f612f0982612ee0565b9050919050565b612f1981612eff565b82525050565b612f2881612ded565b82525050565b5f61016082019050612f425f83018a612e07565b612f4f60a0830189612ed1565b612f5c60c0830188612f10565b612f6960e0830187612f10565b612f77610100830186612f1f565b612f85610120830185612f1f565b612f93610140830184612d16565b98975050505050505050565b5f819050919050565b5f612fc2612fbd612fb884612ee0565b612f9f565b612ee0565b9050919050565b5f612fd382612fa8565b9050919050565b5f612fe482612fc9565b9050919050565b612ff481612fda565b82525050565b5f60208201905061300d5f830184612feb565b92915050565b5f80fd5b5f60a0828403121561302c5761302b613013565b5b81905092915050565b5f819050919050565b61304781613035565b8114613051575f80fd5b50565b5f813590506130628161303e565b92915050565b5f8060c0838503121561307e5761307d612c40565b5b5f61308b85828601613017565b92505060a061309c85828601613054565b9150509250929050565b6130af81612d3e565b82525050565b5f6020820190506130c85f8301846130a6565b92915050565b5f6020820190506130e15f830184612f10565b92915050565b5f80fd5b5f80fd5b5f80fd5b5f8083601f840112613108576131076130e7565b5b8235905067ffffffffffffffff811115613125576131246130eb565b5b602083019150836020820283011115613141576131406130ef565b5b9250929050565b5f805f80606085870312156131605761315f612c40565b5b5f61316d87828801612d5d565b945050602085013567ffffffffffffffff81111561318e5761318d612c44565b5b61319a878288016130f3565b935093505060406131ad87828801613054565b91505092959194509250565b5f80604083850312156131cf576131ce612c40565b5b5f6131dc85828601612c6a565b92505060206131ed85828601612c6a565b9150509250929050565b61320081612c7e565b82525050565b5f6020820190506132195f8301846131f7565b92915050565b5f806040838503121561323557613234612c40565b5b5f61324285828601612d5d565b925050602061325385828601613054565b9150509250929050565b5f61326782612fc9565b9050919050565b6132778161325d565b82525050565b5f6020820190506132905f83018461326e565b92915050565b61329f81612eff565b81146132a9575f80fd5b50565b5f813590506132ba81613296565b92915050565b5f602082840312156132d5576132d4612c40565b5b5f6132e2848285016132ac565b91505092915050565b6132f481612c48565b82525050565b5f60208201905061330d5f8301846132eb565b92915050565b7f4e487b71000000000000000000000000000000000000000000000000000000005f52603260045260245ffd5b7f4e487b71000000000000000000000000000000000000000000000000000000005f52601160045260245ffd5b5f61337782612d3e565b91507fffffffffffffffffffffffffffffffffffffffffffffffffffffffffffffffff82036133a9576133a8613340565b5b600182019050919050565b6133bd81612d9c565b81146133c7575f80fd5b50565b5f81356133d6816133b4565b80915050919050565b5f815f1b9050919050565b5f6bffffffffffffffffffffffff613401846133df565b9350801983169250808416831791505092915050565b5f61343161342c61342784612d9c565b612f9f565b612d9c565b9050919050565b5f819050919050565b61344a82613417565b61345d61345682613438565b83546133ea565b8255505050565b5f813561347081612c54565b80915050919050565b5f8160601b9050919050565b5f6cff00000000000000000000000061349d84613479565b9350801983169250808416831791505092915050565b5f6134cd6134c86134c384612c48565b612f9f565b612c48565b9050919050565b5f819050919050565b6134e6826134b3565b6134f96134f2826134d4565b8354613485565b8255505050565b61350981612dd1565b8114613513575f80fd5b50565b5f813561352281613500565b80915050919050565b5f8160681b9050919050565b5f6effff000000000000000000000000006135518461352b565b9350801983169250808416831791505092915050565b5f61358161357c61357784612dd1565b612f9f565b612dd1565b9050919050565b5f819050919050565b61359a82613567565b6135ad6135a682613588565b8354613537565b8255505050565b6135bd81612ded565b81146135c7575f80fd5b50565b5f81356135d6816135b4565b80915050919050565b5f8160781b9050919050565b5f6fff000000000000000000000000000000613606846135df565b9350801983169250808416831791505092915050565b5f61362682612ded565b9050919050565b5f819050919050565b61363f8261361c565b61365261364b8261362d565b83546135eb565b8255505050565b5f8160801b9050919050565b5f70ff0000000000000000000000000000000061368184613659565b9350801983169250808416831791505092915050565b6136a08261361c565b6136b36136ac8261362d565b8354613665565b8255505050565b5f81015f8301806136ca816133ca565b90506136d68184613441565b5050505f810160208301806136ea81613464565b90506136f681846134dd565b5050505f8101604083018061370a81613516565b90506137168184613591565b5050505f8101606083018061372a816135ca565b90506137368184613636565b5050505f8101608083018061374a816135ca565b90506137568184613697565b5050505050565b61376782826136ba565b5050565b5f81359050613779816133b4565b92915050565b5f6020828403121561379457613793612c40565b5b5f6137a18482850161376b565b91505092915050565b6137b381613035565b82525050565b5f6137c7602084018461376b565b905092915050565b5f6137dd6020840184612c6a565b905092915050565b5f813590506137f381613500565b92915050565b5f61380760208401846137e5565b905092915050565b5f8135905061381d816135b4565b92915050565b5f613831602084018461380f565b905092915050565b60a082016138495f8301836137b9565b6138555f850182612db3565b5061386360208301836137cf565b6138706020850182612dc2565b5061387e60408301836137f9565b61388b6040850182612dde565b506138996060830183613823565b6138a66060850182612df8565b506138b46080830183613823565b6138c16080850182612df8565b50505050565b5f60c0820190506138da5f8301856137aa565b6138e76020830184613839565b9392505050565b5f6040820190506139015f8301856130a6565b61390e6020830184612d16565b9392505050565b5f61391f82612d03565b915061392a83612d03565b9250828201905067ffffffffffffffff81111561394a57613949613340565b5b92915050565b5f6020820190506139635f8301846137aa565b92915050565b5f61397382612d3e565b915061397e83612d3e565b925082820261398c81612d3e565b915082820484148315176139a3576139a2613340565b5b5092915050565b5f602082840312156139bf576139be612c40565b5b5f6139cc84828501612c6a565b91505092915050565b5f602082840312156139ea576139e9612c40565b5b5f6139f7848285016137e5565b91505092915050565b613a0981612dd1565b82525050565b5f602082019050613a225f830184613a00565b92915050565b5f606082019050613a3b5f830186612f10565b613a486020830185612f10565b613a5560408301846130a6565b949350505050565b5f82825260208201905092915050565b5f80fd5b82818337505050565b5f613a858385613a5d565b93507f07ffffffffffffffffffffffffffffffffffffffffffffffffffffffffffffff831115613ab857613ab7613a6d565b5b602083029250613ac9838584613a71565b82840190509392505050565b5f608082019050613ae85f8301886130a6565b613af56020830187612f10565b8181036040830152613b08818587613a7a565b9050613b1760608301846137aa565b9695505050505050565b5f604082019050613b345f8301856132eb565b613b4160208301846130a6565b9392505050565b5f81519050613b56816135b4565b92915050565b5f60208284031215613b7157613b70612c40565b5b5f613b7e84828501613b48565b91505092915050565b5f80fd5b5f601f19601f8301169050919050565b7f4e487b71000000000000000000000000000000000000000000000000000000005f52604160045260245ffd5b613bd182613b8b565b810181811067ffffffffffffffff82111715613bf057613bef613b9b565b5b80604052505050565b5f613c02612c37565b9050613c0e8282613bc8565b919050565b5f81519050613c2181613500565b92915050565b5f81519050613c3581612c54565b92915050565b5f60a08284031215613c5057613c4f613b87565b5b613c5a60a0613bf9565b90505f613c6984828501613c13565b5f830152506020613c7c84828501613c13565b6020830152506040613c9084828501613c13565b6040830152506060613ca484828501613c27565b6060830152506080613cb884828501613b48565b60808301525092915050565b5f60a08284031215613cd957613cd8612c40565b5b5f613ce684828501613c3b565b91505092915050565b5f613cf982612c48565b915060ff8203613d0c57613d0b613340565b5b600182019050919050565b5f608082019050613d2a5f8301876132eb565b613d3760208301866132eb565b613d4460408301856132eb565b613d5160608301846130a6565b95945050505050565b5f604082019050613d6d5f830185612f10565b613d7a60208301846130a6565b9392505050565b7f4e487b71000000000000000000000000000000000000000000000000000000005f52601260045260245ffd5b5f613db882612c48565b9150613dc383612c48565b925082613dd357613dd2613d81565b5b828206905092915050565b5f613de882612d3e565b9150613df383612d3e565b925082613e0357613e02613d81565b5b828204905092915050565b5f613e1882612dd1565b9150613e2383612dd1565b9250828201905061ffff811115613e3d57613e3c613340565b5b92915050565b5f81519050919050565b5f81905092915050565b5f5b83811015613e74578082015181840152602081019050613e59565b5f8484015250505050565b5f613e8982613e43565b613e938185613e4d565b9350613ea3818560208601613e57565b80840191505092915050565b5f613eba8284613e7f565b91508190509291505056fea264697066735822122043f0a6fad9d8dc0690f544f730428da0e78c45ac0f364e663cbe18a42d01f85f64736f6c63430008180033","linkReferences":{}},"methodIdentifiers":{"acceptChallenge(uint256,bytes32)":"a9873581","cancelUnaccepted(uint256)":"955c1247","cardRegistry()":"bec9c4da","claimForfeit(uint256)":"d4c147e2","createChallenge((uint96,uint8,uint16,bool,bool),bytes32)":"6b6feee1","elementOutcome(uint8,uint8)":"a09b405a","getMatchInfo(uint256)":"4b561a16","nextMatchId()":"c5adf7c9","owner()":"8da5cb5b","renounceOwnership()":"715018a6","reveal(uint256,uint256[],bytes32)":"8db29ecc","revealTimeout()":"4376cb34","setElementAdvantage(uint8,uint8,int8)":"3189a19a","stakeToken()":"51ed6a30","transferOwnership(address)":"f2fde38b"},"id":30}